{
  "contractName": "Owned",
  "abi": [
    {
      "constant": false,
      "inputs": [],
      "name": "owned",
      "outputs": [],
      "payable": false,
      "stateMutability": "nonpayable",
      "type": "function"
    }
  ],
  "bytecode": "0x6080604052348015600f57600080fd5b5060c68061001e6000396000f300608060405260043610603f576000357c0100000000000000000000000000000000000000000000000000000000900463ffffffff168063df32754b146044575b600080fd5b348015604f57600080fd5b5060566058565b005b336000806101000a81548173ffffffffffffffffffffffffffffffffffffffff021916908373ffffffffffffffffffffffffffffffffffffffff1602179055505600a165627a7a7230582057b9decdc955cb3b692a87395061a8654b6fe7cbad32bf250e4cf9c5808991ea0029",
  "source": "pragma solidity ^0.4.0;\n\ncontract Owned {\n    address owner;\n    \n    modifier onlyowner(){\n        if (msg.sender == owner) {\n            _;\n        }\n    }\n    \n    function owned () public {\n        owner = msg.sender;\n    }\n}",
  "sourcePath": "/Users/DJ/PREWORK_DJ/Code/ERC20-exchange-react/contracts/owned.sol",
  "compiler": {
    "name": "solc",
    "version": "0.4.24+commit.e67f0147.Emscripten.clang"
  },
  "schemaVersion": "2.0.1",
  "updatedAt": "2018-07-10T00:03:02.129Z"
}